:0200000480007A
:10000000973100009381C13517010100130181FF71
:100010006F00400100000000000000000000000030
:100020006F000000138581F0938581F86308B500A7
:100030002320050013054500E31CB5FE973400009E
:10004000938404B297350000938585B1638AB40028
:1000500003A6040093844400E70006006FF09FFEAF
:100060001305000093050000EF10004C737004307E
:100070006F00000003470500930700026312F712A8
:10008000930700001306000293871700B306F500DC
:1000900003C70600E30AC7FE130600036308C7068A
:1000A00083C8060013069000138708FD1377F70F27
:1000B0006360E60803C8160037A399199306000089
:1000C000130E9000130393996F00C0006362D30670
:1000D00003481700139726003307D700130608FDBF
:1000E0001317170033071701938717001376F60FBE
:1000F000930607FD930808003307F500E378CEFC6C
:1001000023A0D500138507006780000003C81600F0
:10011000130780051376F80D6300E60283C8060016
:1001200093069000138708FD1377F70FE3F6E6F8C0
:100130001305F0FF6780000093872700930E0000EF
:100140009306000013039000130F5000370E0010A9
:100150006F00C001130796FA13964600E3FAC6FD36
:10016000B306E60093871700930E10003307F500DF
:1001700003460700130706FD1308F6F99378F70FF7
:100180001378F80FE37A13FD1307F6FB1377F70FD5
:10019000E3720FFD636CEF00130796FC6FF0DFFB5B
:1001A00093070000930605006FF01FEFE39A0EF42B
:1001B0006FF01FF8130101FF232481002326110093
:1001C0001304050003450500630A05001304140029
:1001D000EF10C07403450400E31A05FE8320C1003C
:1001E000032481001301010167800000834705009B
:1001F000130700026394E708130705009306000243
:100200008347170013071700E38CD7FE638E07049C
:100210009306000093050002930890016F0080038D
:100220001306150013080600638406042300B500B6
:10023000130525009386F7FB93F6F60F63E4D800C9
:1002400093E707022300F6008347070093060000A8
:10025000638C070013071700E394B7FC834707007C
:1002600093061000E39807FE230005006780000056
:1002700013060500130508006FF0DFFB13070500E8
:100280006FF0DFF8130101FE232C810023282101E8
:1002900023263101232E1100232A9100232441011A
:1002A0002322510137340080EF10405B9309050091
:1002B000138905001304C4B51305200513041400A5
:1002C000EF10C06503450400E31A05FE938401F1B5
:1002D000A3830402930A9000938474021306A0007F
:1002E000930600001385090093050900EF20002BF9
:1002F000130405031374F40F138509009305090013
:10030000A38F84FE1306A00093060000EF10104C8C
:10031000130A0900938709009384F4FF93090500E9
:1003200013890500E31C0AFAE3EAFAFA130504004C
:1003300093841400EF10805E03C40400E31804FEED
:100340001305D000EF10805D032481018320C101DB
:1003500083244101032901018329C100032A81006B
:10036000832A41001305A000130101026F10005BF6
:10037000130101FD232C4101232A5101232861018E
:1003800023202103232E310123267101232611026C
:10039000232481022322910293090000138A01F190
:1003A000138B61F3938A41AF13090002930B100082
:1003B00013840A001305700413041400EF10005690
:1003C00003450400E31A05FE13851903A3030A027B
:1003D0002303AA0213040B0013041400EF100054AB
:1003E00003450400E31A05FE1305D003EF10005384
:1003F000B72400F063940900B71400F093050000DF
:1004000013850400EF1080471305803EEF10803EF7
:10041000130400009305040013850400EF10C04985
:100420001304140013050503EF10404FE31424FFD9
:1004300013050002EF10804E6386790193091000C6
:100440006FF01FF71305D000EF10404D0324810219
:100450008320C10283244102032901028329C101AF
:10046000032A8101832A4101032B0101832BC1004F
:100470001305A000130101036F10404A130101FF8F
:100480002324810037340080232611002322910089
:1004900023202101130484B61305700513041400EE
:1004A000EF10C04703450400E31A05FE378401003E
:1004B0001304046A9304D0001309A0006F008000A5
:1004C000630E2501EFF0DFEA13050400EF10803220
:1004D000370501F0EF108042E31495FE8320C10040
:1004E0000324810083244100032901001301010139
:1004F00067800000130101FF2324810023261100DF
:1005000023229100138481831305400513041400F2
:10051000EF10C04003450400E31A05FE13068000F7
:1005200093854186138581F0EF108026138881F032
:1005300003270800B7676364938717261306000034
:10054000631CF70003264800B7D7CDCC938707ED8F
:100550003306F6001336160037333233B76563645B
:10056000130E08009306080013050000130700008F
:100570001303031393851526930F3000130FF00F09
:10058000930E80006F0040049308170693F8F80F4D
:100590006380171793C7F7FF93F7F70F2380F600D1
:1005A00013060000B317AF00B3C5F500832708009A
:1005B000638AB7041307170013060000938616001A
:1005C000130585006302D70783C7060093F7F70F6B
:1005D000E3DCEFFA9308C70293F8F80F6382F8128E
:1005E00093C7F7FF93F7F70F2380F6001306000079
:1005F000930705FEB317FF003343F300832708007A
:10060000E39AB7FA8327480013071700938616006A
:10061000B387674093B71700B307F0403376F6000F
:1006200013058500E312D7FB37AF0000B7D80000F1
:10063000B76F0000370501009300EFD99383F8EC02
:1006400093070000938F1F261305F5FF93021000F8
:10065000130FCFB9130420009388D8CC930E400019
:1006600003570E0013170701135707019346F7FFAF
:100670009396060193D60601638C0708638A570C8C
:10068000938403006384870093840800630E970AB1
:100690002310DE001306000013974700130707FE20
:1006A0003317E5003343E300032708006302B7086C
:1006B0001306000093871700130E2E00E392D7FB5A
:1006C0006304060A138441851305F004130414001F
:1006D000EF10C02403450400E31A05FE8320C10087
:1006E000032481008324410013010101678000007D
:1006F00093C7F7FF93F7F70F2380F6006FF09FEA99
:1007000093C8F8FF93F8F80F238016016FF05FEE9F
:1007100063081704130600002310DE001397470038
:100720003317E500B3C5E50003270800E312B7F867
:100730000327480033076740133717003307E040AB
:100740003376E6006FF01FF72310DE006FF0DFF462
:10075000E304E7FD2310DE00130600006FF01FFC2A
:100760002310FE016FF09FFB1384C1851305600405
:1007700013041400EF10801A03450400E31A05FE69
:100780008320C1000324810083244100130101015F
:1007900067800000130101FF23248100232611003C
:1007A000138401871305200513041400EF100017AC
:1007B00003450400E31A05FE032481008320C100E1
:1007C000370501F0130101016F00905A130101F088
:1007D000232A910D938C81AE2326B10D938D81F345
:1007E000938781882320F1009387C1F3232CF100A4
:1007F000938701F42320F102938721F4232EF1043F
:100800009387F1F3232EF100938761F3232CF104F6
:100810009387C1AF2328F102938741B0232AF102C5
:100820009387C1AE2326F1029387C1B0232CF10236
:10083000938781BD232EF102938741BF2320F104CA
:10084000938781DD2324F1009387C1C02322F10423
:10085000938741C22324F104938701C42326F10422
:100860009387C1C62328F104938701882328F100C8
:10087000938741C82322F102232C810E232A910E53
:100880002328A10D938771F3232E110E2328210F06
:100890002326310F2324410F2322510F2320610FE0
:1008A000232E710D232C810D232AF100938741857E
:1008B0002322F100938741C92320F106938781DE2B
:1008C000232AF104938741CB2324F102938701CC9F
:1008D0002322F1069387C1CD13041000938401F104
:1008E0002324F10613890C001305E00313091900F2
:1008F000EF10C00203450900E31A05FE13090000CA
:100900009309F0FF130AD000930AA000130B900084
:10091000930BF004130C8000370501F0EF00107EFC
:10092000E30C35FF63044505630255056304650365
:100930006306850393071900E3E0FBFE3389240176
:100940002304A90213890700E30804FCEF00107DCB
:100950006FF09FFC130500026FF0DFFDB33720013D
:100960003309F940E30A04FA6FF05FFE338924018A
:10097000230409026318040613850D00EFF01F8796
:1009800013060005938581CF13850D00EF0090625B
:10099000631005020329010013053004130919002F
:1009A000EF00D07703450900E31A05FE6FF09FF3CF
:1009B00013060005938501D013850D00EF00905FAD
:1009C000631C050213041000032941001305F00401
:1009D00013091900EF00907403450900E31A05FE9E
:1009E0006FF05FF01305D000EF0050731305A00007
:1009F000EF00D0726FF05FF813060005938581D089
:100A000013850D00EF00105B631605001304000052
:100A10006FF09FFB13064000938541D113850D00B5
:100A2000EF005059631E05040325810113064000A1
:100A30009385C1D1EF0010581309050083290102E5
:100A400063100508130630009385C1D21385090091
:100A5000EF0050566302050613064000938501D34C
:100A600013850900EF0010551306050063180506ED
:100A700093050900370500F0EF0090656FF0DFF493
:100A800013060005938541D313850D00EF009052A6
:100A900063160500EFF00FFF6FF0DFE413060005AB
:100AA0009385C1D313850D00EF00D050631E05025E
:100AB000EFF01F8C6FF01FE3130610006FF05FFB69
:100AC0000325810113066000938541D2EF00904E0B
:100AD000130910008329C105E30605F61385C1D962
:100AE000EFF04FED6FF01FE013060005938541D442
:100AF00013850D00EF00104C63160500EFF01F98F2
:100B00006FF05FDE13067000938501D513850D002D
:100B1000EF00504A13060500630005161306000592
:100B2000938581D513850D00EF00D0486318051E0D
:100B3000130C0000232681000329C1021305400580
:100B400013091900EF00905D03450900E31A05FE43
:100B50000329810513051C03A38304022383A40234
:100B600013091900EF00905B03450900E31A05FE25
:100B700013050002EF00905A372900F063140C00AF
:100B8000371900F09305F0FF13050900EF00104F2F
:100B9000930A000093091000130B00021305E002F2
:100BA000EF00D057330450419305040013050900AA
:100BB000EF00905113CA1A00930B000093850B00AD
:100BC00013060A0013050900EF00905013054006B4
:100BD000EF00504213050900EF00904D93071000FD
:100BE000B3977701B3C78700B307F54093B71700F2
:100BF000B307F04093850B0013860A001305090024
:100C0000B3F9F900EF00D04C13054006EF00903E19
:100C100013050900EF00D049B307A44093B71700AC
:100C2000B307F040938B1B00B3F9F900E3986BF91D
:100C3000930710006398FA261305E002EF00104EA8
:100C40009305000013050900EF005043638A090A69
:100C5000032901031305000213091900EF00104CCA
:100C600003450900E31A05FE930710006318FC22F0
:100C70000324C1006FF01FC783C7F40213070002EB
:100C8000639AE7220327C1019306000283471700F6
:100C900013071700E38CD7FE930610036388D72051
:100CA00093062003372A00F0E39AD7E28346170021
:100CB00093070002E394F6E21307270013090000EC
:100CC00013059000930500026F00000183460700A2
:100CD000138907FD6388B61E034807009317290090
:100CE000B3872701930608FD9397170093F6F60F35
:100CF00013071700B3870701E37AD5FC6FF01FDEF7
:100D0000032941031305000213091900EF001041E4
:100D100003450900E31A05FE6FF01FF513060005F1
:100D2000938541D613850D00EF00D0286308051880
:100D3000130680009385C1D613850D00EF00902720
:100D40006316051E03290102130700026F008000CD
:100D50001309190083470900E38CE7FE63840766E3
:100D600013065000938581CF13050900EF009024EE
:100D7000630A056413067000938581D71305090083
:100D8000EF0050236304051C13064000938501D82F
:100D900013050900EF00102263100528130949000C
:100DA0009305C10813050900EFF0CFACE34805D265
:100DB000930501093305A900EFF0CFABE34005D25D
:100DC000832AC10883290109032981041305200509
:100DD00013091900EF00903403450900E31A05FEDA
:100DE000EF00105A930B0001130BC0FFE38C09AE08
:100DF000138A090063F43B01130A000113060A0079
:100E00009305010A13850A00EF00D0681309C00199
:100E100003278100B3D72A0193F7F700B307F70040
:100E200003C507001309C9FFEF00502FE31269FF44
:100E30001305A003EF00902E130C00001305000211
:100E4000EF00D02D9307010AB387870103C907007C
:100E500003278100130C1C0093574900B307F700C8
:100E600003C50700EF00902B032781009377F9005B
:100E7000B307F70003C50700EF00502AE3108AFD0F
:100E80001305D000EF0090291305A000EF001029F2
:100E9000B38A4A01B38949416FF05FF5130C100022
:100EA0006FF09FC9930A10006FF05FCF371A00F000
:100EB0006FF0DFDF0327C1016FF01FDEEFF08FE37C
:100EC0006FF05FA28347170093060003638CD7007F
:100ED000930610036388D7049306A007E390D7C056
:100EE0001306F0FF83472700E39A07BE9307F0013C
:100EF000E3C627BF9349F6FF9307F0FF93D9F901A3
:100F00006308F6009305090013050A00EF00501C62
:100F1000138609009305090013050A00EF009016D7
:100F20006FF09FAA130610006FF0DFFB1306000599
:100F3000938541D913850D00EF00D0076302054A60
:100F400083C78402E380079A6FF05FB90329C10366
:100F50001305300513091900EF00501C0345090063
:100F6000E31A05FEEF00D0411305010AEF00104D12
:100F7000032901041305000213091900EF00101AD8
:100F800003450900E31A05FE0349010A032A81000B
:100F90008329410493574900B307FA0003C50700AA
:100FA000EF00D0179377F900B307FA0003C50700E5
:100FB000EF00D0161305D000EF0050161305A00067
:100FC000EF00D0151305000293891900EF001015EA
:100FD00003C50900E31A05FE035A210A1309C000DC
:100FE0009309C0FF03278100B3572A0193F7F70045
:100FF000B307F70003C507001309C9FFEF0010127C
:10100000E31239FF1305D000EF0050111305A000C3
:10101000EF00D0106FF01F8D1306A000938581D8CC
:1010200013050900EF000079E31A05AA0329C1049A
:101030001305400513091900EF00500E0345090080
:10104000E31A05FEEF00D033032901051305000262
:1010500013091900EF00900C03450900E31A05FE7F
:10106000130940019309C0FF03278100B7077F00E0
:10107000B3D7270193F7F700B307F70003C50700BD
:101080001309C9FFEF009009E31039FF032901019B
:101090001305000213091900EF0050080345090069
:1010A000E31A05FE37057F00EF00D05D1309050048
:1010B000634C0532032941001305F004130919009C
:1010C000EF00D00503450900E31A05FE03290106D8
:1010D0001305000213091900EF005004034509002D
:1010E000E31A05FE370A7F00130910009309010C6B
:1010F000B70A8000130600029305010A13050A00CF
:10110000EF0050391307010A834707001307170040
:10111000938717F093B71700B307F0403379F900BE
:10112000E394E9FE130A0A02E3165AFD6300093448
:10113000032941001305F00413091900EF00007E94
:1011400003450900E31A05FE032C4105930B010931
:1011500093890B002326810137097F00232681060E
:10116000EF00C06F130B0500938A05001305010AF9
:101170001306000193050C0023A0690123A2590165
:1011800013040500130A0000EF00806013060A0034
:1011900013050B0093850A00EF00D05F2308A4001D
:1011A000130A8A009307000413041400E310FAFEE4
:1011B000032A410613050002130A1A00EF00007605
:1011C00003450A00E31A05FE130A400103278100C4
:1011D000B357490193F7F700B307F70003C50700BA
:1011E000130ACAFFEF0080739307C0FFE310FAFEF3
:1011F000032A010113050002130A1A00EF0000720E
:1012000003450A00E31A05FE130680019305010A4F
:1012100013050900EF009034130A05006346052604
:10122000032A41001305F004130A1A00EF00006FAF
:1012300003450A00E31A05FEB7077F0013090910EA
:101240009387072093898900130C0C01E31AF9F0A6
:101250000324C10637097F00130C0002930AC0FF64
:10126000130A000193090004032B810613050002F1
:10127000130B1B00EF00806A03450B00E31A05FE09
:10128000130B400103278100B357690193F7F7005F
:10129000B307F70003C50700130BCBFFEF0000688F
:1012A000E3125BFF032B010113050002130B1B006C
:1012B000EF00C06603450B00E31A05FE13060002AB
:1012C0009305010A13050900EF00D01C130B100051
:1012D000930700001307010AB306F7000327C100B4
:1012E00083C606003307F7000347070093871700FC
:1012F0006384E600130B0000E39E47FD03A80B0088
:1013000083A84B009307010A232C710713060000E2
:10131000930B04002326210723280107232A110702
:10132000138407000325010783254107232EC106E7
:1013300003490401EF0010460326C1071377F50F98
:10134000130686006304E900130B00001304140065
:10135000E31A36FD13840B000329C106832B810792
:10136000930780011307010A3307F70003470700BB
:101370009306F00F938717006304D700130B000048
:10138000E39287FF63040B18032B41001305F0045D
:10139000130B1B00EF00805803450B00E31A05FEFA
:1013A0008327C10013090910938B8B0093870701D2
:1013B0002326F100B7077F0093870720E316F9EA99
:1013C0006FF04FD203298103130530071309190069
:1013D000EF00C05403450900E31A05FE6FF08FD0FB
:1013E000EFF04FBB6FF00FD083294102130550047B
:1013F00093891900EF00805203C50900E31A05FE26
:10140000032A410133092041A3830402930A900077
:101410009305A00013050900EF10006E9309050362
:1014200093F9F90F13050900A30F3AFF9305A000E4
:10143000130B0900EF10C067130AFAFF1309050028
:10144000E3E86AFD13850900130A1A00EF00004D56
:1014500003450A00E31A05FE1305D000EF00004C17
:101460001305A000EF00804B6FF05FC603298102D7
:101470001305600413091900EF00404A03450900F1
:10148000E31A05FE6FF05FCC832A41021305500476
:10149000938A1A00EF00804803C50A00E31A05FE8C
:1014A000032B4101330A4041A38304029305A000AA
:1014B00013050A00EF104064930A050393FAFA0F2C
:1014C00013050A00A30F5BFF9305A000EF10405E19
:1014D00013040A0093079000130BFBFF130A050087
:1014E000E3E687FC13850A00130B1B00EF000043A3
:1014F00003450B00E31A05FE1305D000EF00004280
:101500001305A000EF0080416FF01FD3032B810271
:1015100013056004130B1B00EF00404003450B0054
:10152000E31A05FE6FF0DFE7130101FF1306100059
:1015300093050000370500F023261100EF00403925
:10154000138581DBEFE01FC7372500001305057108
:10155000EF00402A1306000093050000370500F055
:10156000EF00003713858188EFE0DFC4EFF00FA6AE
:1015700013040500370900801309090093090000CE
:10158000B702010093820200B3045900930280085D
:1015900073B002301381040017060000130686039F
:1015A000970500009385051F9385C5FF83A205005D
:1015B0009384C4FF23A05400B332B600E39602FE26
:1015C0000F100000678004001300000013000000EB
:1015D000EF00C013930205FEE38C02FE930265FF49
:1015E000E38802FE930235FFE38402FE930265FC6A
:1015F0006396020EEF00800F930A0500130B05009F
:10160000EF00C00E330BAB001315850033EAA900C1
:10161000EF00C00D330BAB00336AAA00EF00000DE2
:10162000330BAB00930B05009382CBFF1385EAFFCE
:10163000638802009382BBFF1385CAFF6394020094
:10164000631E050863880A04938AFAFFEF00000A04
:10165000330BAB00638C0B009382CBFF638E0200D5
:101660009302BAFF638202026FF0DFFD2300AA003B
:10167000130A1A006FF01FFD13158500B3E9A900C6
:10168000939989006FF01FFC131989003369A90031
:101690006FF05FFBEF008005330BAB00137BFB0F9C
:1016A000631E0B02EF008006930265FF6386020053
:1016B000930235FF639402029302E0022320540058
:1016C0009382FBFFE39602F0170500001305050B5C
:1016D000EF0000080F100000670009001705000068
:1016E0001305150AEF00C0066F0000001383000009
:1016F000EF00C001EF00000393134500EF0000016D
:10170000EF00400233657500670003000325040005
:101710009352050193F212001375F50FE38802FE50
:1017200067800000130505FDE34A05FA930265FF93
:1017300063CE02001305F5FEE34205FA1375F5FDCD
:10174000930285FFE3DC02F81305A5006780000023
:101750008322440093D2F20093F21200E39A02FE35
:1017600083420500638802002320540013051500FE
:101770006FF01FFE678000004F4B0D0A0046414985
:101780004C0D0A00130000001300000013000000BD
:10179000630006023306C5009307050003C7050072
:1017A0009387170093851500A38FE7FEE398C7FE84
:1017B00067800000630C06023386C5006F00C0001E
:1017C000638607026304B6028347050003C705006A
:1017D0001305150093851500E384E7FE33B5E70094
:1017E0003305A04013651500678000001305000055
:1017F00067800000732700C0B7D6A3009386A67049
:1018000063F6A602B715AEFF370600209385B547ED
:10181000130646FF3305B5003307C700F32700C0A2
:10182000B307F740E34CF0FEE3E6A6FE931715007E
:10183000B387A70093973700B387A7009397270034
:101840001307B7FF3387E700F32700C0B307F7405C
:10185000E34CF0FE1305000067800000F32700C88A
:10186000732500C0F32500C8B387F54093B7170070
:10187000B307F0403375F500678000002324B500FE
:10188000678000000327850093071000B397B70017
:1018900063080600B367F7002324F50067800000A3
:1018A00093C7F7FFB3F7E7002324F5006780000034
:1018B0000325050067800000032505003355B500AA
:1018C00013751500678000002322B50067800000B3
:1018D0000327450093071000B397B700630806007D
:1018E000B367F7002322F5006780000093C7F7FF76
:1018F000B3F7E7002322F500678000000325050009
:10190000B7070100B377F500638607001375F50F7D
:10191000678000001305F0FF678000001375F50F66
:10192000370701F0B786000083274700B3F7D700D9
:10193000E39C07FE2320A70067800000374700F0E4
:101940008327070093F72700E38C07FE2324A700D3
:1019500013D50501374700F08327070093F72700C9
:10196000E38C07FE9377F50F2324F70013D585004A
:10197000374700F08327070093F72700E38C07FE23
:101980009377F50F2324F700374700F083270700EC
:1019900093F72700E38C07FE93F5F50F2324B70098
:1019A00063840602B305D600374700F0834606007D
:1019B0008327070093F72700E38C07FE2324D70033
:1019C00013061600E394C5FE374700F0832707008F
:1019D00093F71700E39C07FE2322070067800000AF
:1019E000130101FE232C8100232A9100130405001A
:1019F000232821012324410123225101232E1100F8
:101A000023263101EFF09FE593171400B38687007A
:101A100033B7F6001356F401939736003307C70027
:101A20003384870093D6D6011317370033E7E600D7
:101A3000B337F400B387E700939727001317240008
:101A40001354E401B367F400330AA7003337EA0004
:101A5000B387B700B304F700374400F01309000759
:101A6000930A00108327040093F72700E38C07FEF6
:101A7000232424010327040093772700937647004B
:101A800063940706E38806FE832984008327040005
:101A900093F71700E39C07FE939789012322040024
:101AA00093D7874163CE0700EFF05FDB3305AA4091
:101AB0003335AA00B385B440B385A540E3D405FA15
:101AC0008320C101032481018324410103290101F1
:101AD000032A8100832A410013F5F90F8329C100ED
:101AE000130101026780000023245401137747008B
:101AF000E31C07F88327040093F74700E39607F8F1
:101B00008327040093F74700E38607FE6FF0DFF7B3
:101B1000374700F08327070093F72700E38C07FE81
:101B20002324A700B74600F01305060013070000A2
:101B30001303001083A706003388E500630A05003D
:101B400093F827006386080023A466001305F5FFB9
:101B500093F747006388070083A7860013071700E1
:101B60002300F800E368C7FC374700F0832707002D
:101B700093F71700E39C07FE23220700678000000D
:101B8000B74600F083A7060013F7470093F7170046
:101B9000630C070083A7860083A7060013F747009E
:101BA00093F71700E31807FEE39E07FC374700F0A2
:101BB0008327070093F72700E38C07FE9307F00FB6
:101BC0002324F700374700F08327070093F7170017
:101BD000E39C07FE23220700374700F08327070016
:101BE00093F72700E38C07FE9307F00F2324F700F9
:101BF000374700F08327070093F71700E39C07FEA1
:101C000023220700374700F08327070093F72700B8
:101C1000E38C07FE930700052324F700374700F005
:101C20008327070093F71700E39C07FE37C52D00B5
:101C3000232207001305056C6FF09FDA130101FEE4
:101C4000232C81009305C100130405001306300006
:101C50001305F009232E1100EFF09FEB8347E100FD
:101C60000347D10093978700B3E7E70013978700F6
:101C700093D78700B367F7000347C1002311F4002F
:101C80002300E4008320C101032481011301010228
:101C900067800000374700F08327070093F727008D
:101CA000E38C07FE930730002324F70093560501C9
:101CB000374700F08327070093F72700E38C07FEE0
:101CC00093F7F60F2324F70093568500374700F06B
:101CD0008327070093F72700E38C07FE93F7F60F9F
:101CE0002324F700374700F08327070093F72700E6
:101CF000E38C07FE1375F50F2324A7006304060485
:101D00001305060013070000B74600F01303001088
:101D100083A706003388E500630A050093F82700CF
:101D20006386080023A466001305F5FF93F74700B8
:101D30006388070083A78600130717002300F800B5
:101D4000E368C7FC374700F08327070093F71700C5
:101D5000E39C07FE2322070067800000130101FEB9
:101D6000232C8100232A910023282101130405003C
:101D700093840500130906009305F1001306100073
:101D800013050007232E1100EFF09FD88307F10001
:101D900063D8070A374700F08327070093F7270027
:101DA000E38C07FE930700052324F700374700F074
:101DB0008327070093F71700E39C07FE2322070001
:101DC000374700F08327070093F72700E38C07FECF
:101DD000930760002324F700374700F083270700AC
:101DE00093F71700E39C07FE93060900138604008F
:101DF000930504001305200023220700EFF01FB411
:101E00003715000013058538EFF09FBD9317850146
:101E1000A307A10093D7874163D8070293770501F1
:101E200013050000639607028320C101032481018A
:101E3000832441010329010113010102678000008D
:101E40001305D0FF6FF05FFE1305E0FF6FF0DFFDBD
:101E5000374700F08327070093F72700E38C07FE3E
:101E6000930700052324F700374700F08327070076
:101E700093F71700E39C07FE232207001305F0FFEA
:101E80006FF09FFA130101FE232C8100130610004E
:101E9000130405009305F10013050007232E11001C
:101EA000EFF01FC78307F10063D4070A374700F03C
:101EB0008327070093F72700E38C07FE93070005AD
:101EC0002324F700374700F08327070093F7170014
:101ED000E39C07FE23220700374700F08327070013
:101EE00093F72700E38C07FE930760002324F70095
:101EF000374700F08327070093F71700E39C07FE9E
:101F00009306000013060000930504001305800DDE
:101F100023220700EFF09FA237C52D001305056CA3
:101F2000EFF01FAC93178501A307A10093D787415A
:101F300063D407029377050213050000639207023A
:101F40008320C10103248101130101026780000085
:101F50001305D0FF6FF0DFFE1305E0FF6FF05FFEAB
:101F6000374700F08327070093F72700E38C07FE2D
:101F7000930700052324F700374700F08327070065
:101F800093F71700E39C07FE232207001305F0FFD9
:101F90006FF01FFB6300060293070002B387C74080
:101FA000634CF000130506FE1307000033D5A500AF
:101FB000930507006780000033D7C5003355C5007F
:101FC000B395F5003365B5006FF09FFE130101FD79
:101FD0002324810223267101232611022322910248
:101FE00023202103232E3101232C4101232A5101D7
:101FF000232861012324810123229101930B0500F1
:1020000013840500639A063813090600130A0500B5
:10201000938481E063F8C512B7070100138C0500B3
:102020006378F6101307F00F3337C7001317370024
:10203000B357E600B384F40083C604003387E60098
:1020400093060002B387E640638CE6003314F40085
:1020500033D7EB003319F600336C8700339AFB005B
:10206000135B090193050B0013050C00EF00D0284A
:102070009304050093050B00931A090113050C0046
:10208000EF00102393DA0A011304050093050500FD
:1020900013850A00EF00101F9394040113570A01DF
:1020A00033E7E40093090400637EA70033072701A8
:1020B0009309F4FF636827016376A7009309E4FF9F
:1020C000330727013304A74093050B0013050400D1
:1020D000EF0090229304050093050B001305040004
:1020E000EF00101D131A0A011304050093050500E3
:1020F0009394040113850A00135A0A01EF00901803
:1021000033EA440113060400637CAA00330A490140
:102110001306F4FF63662A016374AA001306E4FF42
:1021200093970901B3E7C700930400006F00001301
:10213000B707000113070001E36CF6EE13078001F7
:102140006FF01FEF93890600631A060093050000E5
:1021500013051000EF00D01513090500B7070100A3
:10216000637CF9129307F00F63F427019309800051
:10217000B3573901B384F40083C704009306000207
:10218000B38737013387F6406392F6123304244154
:1021900093041000935A090193850A001305040063
:1021A000EF0090159309050093850A0013050400BC
:1021B000131B0901EF00D00F135B0B011304050083
:1021C0009305050013050B00EF00D00B939909014F
:1021D00013570A0133E7E900930B0400637EA7005D
:1021E00033072701930BF4FF636827016376A70089
:1021F000930BE4FF330727013304A74093850A00BC
:1022000013050400EF00500F9309050093850A00A1
:1022100013050400EF00D009131A0A011304050086
:10222000930505009399090113050B00135A0A0140
:10223000EF00500533EA490113060400637CAA004D
:10224000330A49011306F4FF63662A016374AA0086
:102250001306E4FF93970B01B3E7C700138507004C
:10226000938504008320C102032481028324410258
:10227000032901028329C101032A8101832A410123
:10228000032B0101832BC100032C8100832C41000F
:102290001301010367800000B707000193090001E3
:1022A000E368F9EC930980016FF09FEC3319E900C2
:1022B000B359F400B3D7FB003314E400B3EA87004A
:1022C000135409019305040013850900339AEB00A8
:1022D000EF009002930405009305040013850900A4
:1022E000131B0901EF00C07C135B0B019309050070
:1022F0009305050013050B00EF00C07893940401CB
:1023000093D70A01B3E7F400938B090063FEA7009B
:10231000B3872701938BF9FF63E8270163F6A700D2
:10232000938BE9FFB3872701B389A7409305040086
:1023300013850900EF00407C930504009304050019
:1023400013850900EF00C07613940A019309050074
:10235000930505009394040113050B001354040125
:10236000EF00407233E4840093870900637EA40089
:10237000330424019387F9FF636824016376A40082
:102380009387E9FF3304240193940B013304A440A1
:10239000B3E4F4006FF01FE063ECD51EB707010053
:1023A00063F2F604930AF00F33B7DA00131737001D
:1023B000B3D5E600938781E0B387B70083CA0700EF
:1023C00093070002B38AEA00B38457416396570328
:1023D00093071000E3E486E833B6CB00934716007A
:1023E0006FF0DFE7B707000113070001E3E2F6FC37
:1023F000130780016FF0DFFBB35C5601B3969600C4
:10240000B3ECDC00B359540133149400B3DA5B012C
:10241000B3EA8A0013D40C01930504001385090064
:1024200033199600EF00406D130A05009305040070
:1024300013850900139B0C01EF008067135B0B01F0
:10244000930905009305050013050B00EF00806359
:10245000131A0A0113D70A013367EA00138C090023
:10246000637EA70033079701138CF9FF6368970118
:102470006376A700138CE9FF33079701B309A740E0
:102480009305040013850900EF000067930504001D
:10249000130A050013850900EF00806113940A01F7
:1024A0009309050093050500131A0A0113050B0093
:1024B00013540401EF00005D33648A0013860900A1
:1024C000637EA400330494011386F9FF63689401CA
:1024D0006376A4001386E9FF3304940193170C017B
:1024E000370E0100B3E7C7001303FEFFB3F8670020
:1024F000337369003304A44093DE070113590901C3
:102500001385080093050300EF00C057130805006A
:102510009305090013850800EF00C05693080500D5
:102520009305030013850E00EF00C055130305004B
:102530009305090013850E00EF00C05413570801DE
:10254000B3886800330717019306050063746700BA
:10255000B306C50113550701B306D5006366D4025F
:10256000E314D4BC370501001305F5FF3377A7004A
:10257000131707013378A800B39B9B0033070701AB
:1025800093040000E3FCEBCC9387F7FF6FF0DFB917
:1025900093040000930700006FF05FCC130101FD6E
:1025A0002324810223229102232021032328610175
:1025B00023261102232E3101232C4101232A51010C
:1025C0002326710123248101232291012320A101CB
:1025D00013090500138B05001304050093840500FF
:1025E000639A0626130A060093890600938A81E0FF
:1025F00063F2C514B70701006374F6129307F00F76
:1026000063F4C70093098000B3573601B38AFA0018
:1026100083C70A0013070002B3873701B309F740E5
:10262000630CF700B3153B01B357F900331A3601B9
:10263000B3E4B70033143901935A0A0193850A00B1
:1026400013850400EF00404B1309050093850A0031
:10265000131B0A0113850400EF008045135B0B0177
:102660009305050013050B00EF00C0411319090184
:1026700093570401B367F90063FAA700B3874701D2
:1026800063E6470163F4A700B3874701B384A7401B
:1026900093850A0013850400EF0000461309050026
:1026A00093850A0013850400EF0080401314040191
:1026B000930505001319090113050B0013540401B8
:1026C000EF00403C33648900637AA4003304440182
:1026D000636644016374A400330444013304A440DA
:1026E00033553401930500008320C1020324810285
:1026F00083244102032901028329C101032A8101A4
:10270000832A4101032B0101832BC100032C81008B
:10271000832C4100032D0100130101036780000099
:10272000B707000193090001E360F6EE9309800109
:102730006FF09FED631A060093050000130510006B
:10274000EF000037130A0500B7070100637AFA0E9D
:102750009307F00F63F4470193098000B3573A01E0
:10276000B38AFA0083C70A0013070002B3044B417F
:10277000B3873701B309F740E300F7EC331A3A01A6
:10278000B35AFB00B3153B01B357F90093540A0148
:1027900033EBB70013850A0093850400EF00C035C2
:1027A0009385040033143901931B0A0113090500B2
:1027B00013850A00EF00C02F93DB0B019305050082
:1027C00013850B00EF00002C1319090193570B011F
:1027D000B367F90063FAA700B387470163E64701CF
:1027E00063F4A700B3874701B38AA7409385040029
:1027F00013850A00EF00403013090500938504009B
:1028000013850A00EF00C02A9305050013850B000D
:10281000EF00402793150B011319090193D505010A
:10282000B365B90063FAA500B385450163E64501C8
:1028300063F4A500B3854501B384A5406FF0DFDFE5
:10284000B707000193090001E36AFAF093098001D8
:102850006FF0DFF0E3EAD5E8B707010063FAF604AA
:10286000930AF00F33B5DA001315350033D7A600FD
:10287000938781E0B387E70083CA070093070002CC
:10288000B38AAA00338A5741639E570363E4660103
:10289000636AC9003304C940B305DB40333589009E
:1028A000B384A54013050400938504006FF0DFE3B3
:1028B000B707000113050001E3EAF6FA13058001EA
:1028C0006FF0DFFAB3964601B357560133ECD700E9
:1028D000335D5B01B3154B01B3545901135B0C011C
:1028E000B3E4B40013050D0093050B00B31C4601BF
:1028F000EF0080209309050093050B0013050D00E0
:10290000931B0C01EF00C01A93DB0B01930505002C
:10291000331449011309050013850B00EF008016DD
:102920009399090113D7040133E7E900130D090056
:10293000637EA70033078701130DF9FF63688701E2
:102940006376A700130DE9FF330787013309A7401A
:1029500093050B0013050900EF00001A9309050009
:1029600093050B0013050900EF00801413090500FF
:102970009305050013850B00EF00C01013970401A9
:10298000939909011357070133E7E90093070900F9
:10299000637EA700330787019307F9FF6368870108
:1029A0006376A7009307E9FF33078701B70E01009D
:1029B000131D0D01336DFD009387FEFFB378FD00FD
:1029C000B3F7FC003307A740135D0D0113DE0C01C4
:1029D0001385080093850700EF00C00A130805005F
:1029E00093050E0013850800EF00C0099308050049
:1029F0009385070013050D00EF00C00813030500C1
:102A000093050E0013050D00EF00C0079357080152
:102A1000B3886800B387170163F467003305D501F5
:102A200093D50701B385A500370501001305F5FF10
:102A3000B3F7A700939707013375A8003385A70064
:102A40006366B700631EB700637CA400330695413C
:102A5000B337C500B3878701B385F540130506007A
:102A60003305A4403334A400B305B740B385854093
:102A700033945501335545013365A400B3D5450161
:102A80006FF09FC6130605001305000093F61500AE
:102A9000638406003305C50093D515001316160090
:102AA000E39605FE678000006340050663C60506E1
:102AB00013860500930505001305F0FF630C06025D
:102AC00093061000637AB6006358C0001316160010
:102AD00093961600E36AB6FE1305000063E6C50090
:102AE000B385C5403365D50093D61600135616003E
:102AF000E39606FE6780000093820000EFF05FFB24
:102B000013850500678002003305A04063D80500E7
:102B1000B305B0406FF0DFF9B305B0409382000019
:102B2000EFF01FF93305A040678002009382000098
:102B300063CA0500634C0500EFF09FF7138505009D
:102B400067800200B305B040E35805FE3305A0409E
:0C2B5000EFF01FF63305B0406780020074
:102B5C0052444359434C45203D2000005761746357
:102B6C0068696E67204750494F2C207072657373EB
:102B7C0020456E74657220746F2073746F70202EF4
:102B8C002E2E0D0A0000000054657374696E6720C8
:102B9C006D656D6F727920616363657373202E2E82
:102BAC002E2000004F4B0D0A000000004641494CFE
:102BBC000D0A0000616263643031323300000000A2
:102BCC0052656164696E6720484558206461746180
:102BDC00202E2E2E20000000436F6D6D616E6473ED
:102BEC003A0D0A202068656C7020202020202020BF
:102BFC0020202020202020202020202020202D20BC
:102C0C0053686F77207468697320746578740D0A43
:102C1C0020206563686F207B6F6E7C6F66667D20FD
:102C2C0020202020202020202020202D20456E61D7
:102C3C00626C65206F722064697361626C652063DD
:102C4C006F6D6D616E64206563686F0D0A20206C7A
:102C5C006564207B7265647C677265656E7D207B24
:102C6C006F6E7C6F66667D202D205475726E204CC5
:102C7C004544206F6E206F72206F66660D0A20200F
:102C8C0072646379636C6520202020202020202032
:102C9C002020202020202020202D2053686F7720FA
:102CAC00696E737472756374696F6E206379636C8B
:102CBC006520636F756E7465720D0A2020676574EC
:102CCC006770696F202020202020202020202020C9
:102CDC002020202020202D2053686F77204750493A
:102CEC004F20696E7075742073746174650D0A20C1
:102CFC002077617463686770696F20202020202022
:102D0C00202020202020202020202D20576174639B
:102D1C0068204750494F20696E7075742073746138
:102D2C0074650D0A20207365746770696F7B317C44
:102D3C00327D207B302E2E33317D207B307C317CDC
:102D4C005A7D202D20536574204750494F206F75B4
:102D5C00747075742070696E2073746174650D0ADB
:102D6C002020746573746770696F202020202020E8
:102D7C0020202020202020202020202D205465736E
:102D8C0074204750494F20696E7075742F6F75749D
:102D9C007075740D0A2020746573746D656D202038
:102DAC002020202020202020202020202020202017
:102DBC002D20546573742073696D706C65206D657E
:102DCC006D6F7279206163636573730D0A202073D4
:102DDC007069666C617368202E2E2E2020202020B6
:102DEC0020202020202020202D2053504920666CAC
:102DFC0061736820636F6D6D616E640D0A202068CD
:102E0C006578626F6F7420202020202020202020E5
:102E1C0020202020202020202D204C6F6164206158
:102E2C006E64206578656375746520484558206626
:102E3C00696C650D0A0D0A003E3E200054657374E2
:102E4C00696E67204750494F00000000204F4B0D22
:102E5C000A000000204641494C0D0A007370696657
:102E6C006C61736820737562636F6D6D616E6473F2
:102E7C003A0D0A2020737069666C61736820726564
:102E8C006164696420202020202020202020202024
:102E9C00202D205265616420666C61736820646526
:102EAC00766963652049440D0A2020737069666C4D
:102EBC006173682072656164203C616464723E20B9
:102ECC003C6C656E3E20202D205265616420627939
:102EDC007465732066726F6D20666C617368206D0B
:102EEC00656D6F72790D0A2020737069666C617361
:102EFC0068207772697465746573742020202020B3
:102F0C0020202020202D20546573742070726F6750
:102F1C0072616D2F65726173652066756E6374697D
:102F2C006F6E730D0A0D0A0053504920666C617365
:102F3C0068206964656E74696669636174696F6E33
:102F4C003A0D0A0020206D616E75666163747572AE
:102F5C006572204944203D203078000020206465B3
:102F6C0076696365204944202020202020203D20C4
:102F7C003078000052656164696E672066726F6D0F
:102F8C002053504920666C6173683A0D0A000000AA
:102F9C00546573742053504920666C6173682070BB
:102FAC00726F6772616D2F65726173652066756EE5
:102FBC006374696F6E733A0D0A000000202045722D
:102FCC006173696E6720736563746F72206174201E
:102FDC00307800004552524F5220636F6465202DAB
:102FEC0000000000202052656164206261636B2048
:102FFC0065726173656420736563746F72202E2E25
:10300C002E2000004641494C4544210D0A00000089
:10301C00202050726F6772616D6D696E67207061F0
:10302C006765206174203078000000002020526514
:10303C006164696E67206261636B207061676520F3
:10304C00617420307800000068656C70000000002E
:10305C006563686F206F6E006563686F206F6666CE
:10306C00000000006C6564200000000072656420A4
:10307C0000000000677265656E2000006F6E000036
:10308C006F66660072646379636C6500676574676C
:10309C0070696F0077617463686770696F00000016
:1030AC007365746770696F00746573746770696FAA
:1030BC0000000000746573746D656D007370696653
:1030CC006C617368000000007265616469640000E3
:1030DC0072656164000000007772697465746573D1
:1030EC0074000000686578626F6F74004552524F2F
:1030FC00523A20756E6B6E6F776E20636F6D6D61DB
:10310C006E640D0A000000005445303839302052EE
:10311C004953432D5620626F6F74206D6F6E697426
:10312C006F720D0A0D0A00003031323334353637E8
:10313C003839616263646566466C617368207772C6
:10314C006974652074657374416E6F746865722060
:10315C0074657374706167650001020203030303F5
:10316C00040404040404040405050505050505050B
:10317C0005050505050505050606060606060606EB
:10318C0006060606060606060606060606060606D3
:10319C0006060606060606060707070707070707BB
:1031AC0007070707070707070707070707070707A3
:1031BC000707070707070707070707070707070793
:1031CC000707070707070707070707070707070783
:1031DC00070707070707070708080808080808086B
:1031EC000808080808080808080808080808080853
:1031FC000808080808080808080808080808080843
:10320C000808080808080808080808080808080832
:10321C000808080808080808080808080808080822
:10322C000808080808080808080808080808080812
:10323C000808080808080808080808080808080802
:10324C0008080808080808080808080808080808F2
:08325C0008080808080808082A
:040000058000000077
:00000001FF
